{
  "_format": "hh-sol-artifact-1",
  "contractName": "VRFProvider",
  "sourceName": "contracts/VRFProvider.sol",
  "abi": [
    {
      "inputs": [],
      "stateMutability": "nonpayable",
      "type": "constructor"
    },
    {
      "anonymous": false,
      "inputs": [
        {
          "indexed": true,
          "internalType": "address",
          "name": "previousOwner",
          "type": "address"
        },
        {
          "indexed": true,
          "internalType": "address",
          "name": "newOwner",
          "type": "address"
        }
      ],
      "name": "OwnershipTransferred",
      "type": "event"
    },
    {
      "inputs": [],
      "name": "getRandom",
      "outputs": [
        {
          "internalType": "uint256",
          "name": "random",
          "type": "uint256"
        }
      ],
      "stateMutability": "nonpayable",
      "type": "function"
    },
    {
      "inputs": [],
      "name": "owner",
      "outputs": [
        {
          "internalType": "address",
          "name": "",
          "type": "address"
        }
      ],
      "stateMutability": "view",
      "type": "function"
    },
    {
      "inputs": [
        {
          "internalType": "bytes32",
          "name": "requestId",
          "type": "bytes32"
        },
        {
          "internalType": "uint256",
          "name": "randomness",
          "type": "uint256"
        }
      ],
      "name": "rawFulfillRandomness",
      "outputs": [],
      "stateMutability": "nonpayable",
      "type": "function"
    },
    {
      "inputs": [
        {
          "internalType": "uint256",
          "name": "_amount",
          "type": "uint256"
        }
      ],
      "name": "recoverLink",
      "outputs": [],
      "stateMutability": "nonpayable",
      "type": "function"
    },
    {
      "inputs": [],
      "name": "renounceOwnership",
      "outputs": [],
      "stateMutability": "nonpayable",
      "type": "function"
    },
    {
      "inputs": [],
      "name": "requestRandom",
      "outputs": [
        {
          "internalType": "bytes32",
          "name": "",
          "type": "bytes32"
        }
      ],
      "stateMutability": "nonpayable",
      "type": "function"
    },
    {
      "inputs": [
        {
          "internalType": "bytes32",
          "name": "",
          "type": "bytes32"
        }
      ],
      "name": "requestToAddress",
      "outputs": [
        {
          "internalType": "address",
          "name": "",
          "type": "address"
        }
      ],
      "stateMutability": "view",
      "type": "function"
    },
    {
      "inputs": [
        {
          "internalType": "address",
          "name": "_snft",
          "type": "address"
        }
      ],
      "name": "setSNFT",
      "outputs": [],
      "stateMutability": "nonpayable",
      "type": "function"
    },
    {
      "inputs": [],
      "name": "snft",
      "outputs": [
        {
          "internalType": "contract ISNFT",
          "name": "",
          "type": "address"
        }
      ],
      "stateMutability": "view",
      "type": "function"
    },
    {
      "inputs": [
        {
          "internalType": "address",
          "name": "newOwner",
          "type": "address"
        }
      ],
      "name": "transferOwnership",
      "outputs": [],
      "stateMutability": "nonpayable",
      "type": "function"
    }
  ],
  "bytecode": "0x60c060405234801561001057600080fd5b5060008061002461001f610070565b610074565b6001600160601b0319606092831b811660a052911b166080527ff86195cf7690c55907b2b611ebb7343a6f649bff128701cc542f0569e2c549da600355655af3107a40006004556100c4565b3390565b600080546001600160a01b038381166001600160a01b0319831681178455604051919092169283917f8be0079c531659141344cd1fd0a4f28419497f9722a3daafe3b4186f6b6457e09190a35050565b60805160601c60a05160601c610be661010b600039600081816101e70152610723015260008181610301015281816103bb0152818161047601526106f40152610be66000f3fe608060405234801561001057600080fd5b506004361061009e5760003560e01c8063aacc5a1711610066578063aacc5a17146100f9578063cf4721b31461010e578063da9f755014610121578063efd3f4ea14610129578063f2fde38b1461013c5761009e565b80631afafbf4146100a35780634a04d059146100cc578063715018a6146100d45780638da5cb5b146100de57806394985ddd146100e6575b600080fd5b6100b66100b13660046108f0565b61014f565b6040516100c39190610977565b60405180910390f35b6100b661016a565b6100dc610179565b005b6100b66101cd565b6100dc6100f4366004610908565b6101dc565b610101610232565b6040516100c39190610a0e565b6100dc61011c3660046108f0565b6102a9565b610101610444565b6100dc6101373660046108a2565b610562565b6100dc61014a3660046108a2565b6105c3565b6006602052600090815260409020546001600160a01b031681565b6002546001600160a01b031681565b610181610634565b6001600160a01b03166101926101cd565b6001600160a01b0316146101c15760405162461bcd60e51b81526004016101b890610afb565b60405180910390fd5b6101cb6000610638565b565b6000546001600160a01b031690565b336001600160a01b037f000000000000000000000000000000000000000000000000000000000000000016146102245760405162461bcd60e51b81526004016101b890610b30565b61022e8282610688565b5050565b6002546000906001600160a01b0316331461025f5760405162461bcd60e51b81526004016101b890610acc565b6005805490600061026f83610b7f565b9190505550423360055460405160200161028b9392919061094f565b6040516020818303038152906040528051906020012060001c905090565b6102b1610634565b6001600160a01b03166102c26101cd565b6001600160a01b0316146102e85760405162461bcd60e51b81526004016101b890610afb565b6040516370a0823160e01b815281906001600160a01b037f000000000000000000000000000000000000000000000000000000000000000016906370a0823190610336903090600401610977565b60206040518083038186803b15801561034e57600080fd5b505afa158015610362573d6000803e3d6000fd5b505050506040513d601f19601f820116820180604052508101906103869190610929565b10156103a45760405162461bcd60e51b81526004016101b890610a81565b60405163a9059cbb60e01b81526001600160a01b037f0000000000000000000000000000000000000000000000000000000000000000169063a9059cbb906103f2903390859060040161098b565b602060405180830381600087803b15801561040c57600080fd5b505af1158015610420573d6000803e3d6000fd5b505050506040513d601f19601f8201168201806040525081019061022e91906108d0565b6002546000906001600160a01b031633146104715760405162461bcd60e51b81526004016101b890610acc565b6004547f00000000000000000000000000000000000000000000000000000000000000006001600160a01b03166370a08231306040518263ffffffff1660e01b81526004016104c09190610977565b60206040518083038186803b1580156104d857600080fd5b505afa1580156104ec573d6000803e3d6000fd5b505050506040513d601f19601f820116820180604052508101906105109190610929565b101561052e5760405162461bcd60e51b81526004016101b890610a81565b600061053e6003546004546106f0565b600081815260066020526040902080546001600160a01b0319163317905591505090565b61056a610634565b6001600160a01b031661057b6101cd565b6001600160a01b0316146105a15760405162461bcd60e51b81526004016101b890610afb565b600280546001600160a01b0319166001600160a01b0392909216919091179055565b6105cb610634565b6001600160a01b03166105dc6101cd565b6001600160a01b0316146106025760405162461bcd60e51b81526004016101b890610afb565b6001600160a01b0381166106285760405162461bcd60e51b81526004016101b890610a3b565b61063181610638565b50565b3390565b600080546001600160a01b038381166001600160a01b0319831681178455604051919092169283917f8be0079c531659141344cd1fd0a4f28419497f9722a3daafe3b4186f6b6457e09190a35050565b600254604051631f1f897f60e01b81526001600160a01b0390911690631f1f897f906106ba9085908590600401610941565b600060405180830381600087803b1580156106d457600080fd5b505af11580156106e8573d6000803e3d6000fd5b505050505050565b60007f00000000000000000000000000000000000000000000000000000000000000006001600160a01b0316634000aea07f000000000000000000000000000000000000000000000000000000000000000084866000604051602001610757929190610941565b6040516020818303038152906040526040518463ffffffff1660e01b8152600401610784939291906109a4565b602060405180830381600087803b15801561079e57600080fd5b505af11580156107b2573d6000803e3d6000fd5b505050506040513d601f19601f820116820180604052508101906107d691906108d0565b506000838152600160205260408120546107f590859083903090610835565b6000858152600160208190526040909120549192506108149190610b67565b60008581526001602052604090205561082d848261086f565b949350505050565b60008484848460405160200161084e9493929190610a17565b60408051601f19818403018152919052805160209091012095945050505050565b60008282604051602001610884929190610941565b60405160208183030381529060405280519060200120905092915050565b6000602082840312156108b3578081fd5b81356001600160a01b03811681146108c9578182fd5b9392505050565b6000602082840312156108e1578081fd5b815180151581146108c9578182fd5b600060208284031215610901578081fd5b5035919050565b6000806040838503121561091a578081fd5b50508035926020909101359150565b60006020828403121561093a578081fd5b5051919050565b918252602082015260400190565b92835260609190911b6bffffffffffffffffffffffff19166020830152603482015260540190565b6001600160a01b0391909116815260200190565b6001600160a01b03929092168252602082015260400190565b600060018060a01b038516825260208481840152606060408401528351806060850152825b818110156109e5578581018301518582016080015282016109c9565b818111156109f65783608083870101525b50601f01601f19169290920160800195945050505050565b90815260200190565b93845260208401929092526001600160a01b03166040830152606082015260800190565b60208082526026908201527f4f776e61626c653a206e6577206f776e657220697320746865207a65726f206160408201526564647265737360d01b606082015260800190565b6020808252602b908201527f4e6f7420656e6f756768204c494e4b202d2066696c6c20636f6e74726163742060408201526a1dda5d1a0819985d58d95d60aa1b606082015260800190565b6020808252601590820152741b9bdd081d1a194819d85b594818dbdb9d1c9858dd605a1b604082015260600190565b6020808252818101527f4f776e61626c653a2063616c6c6572206973206e6f7420746865206f776e6572604082015260600190565b6020808252601f908201527f4f6e6c7920565246436f6f7264696e61746f722063616e2066756c66696c6c00604082015260600190565b60008219821115610b7a57610b7a610b9a565b500190565b6000600019821415610b9357610b93610b9a565b5060010190565b634e487b7160e01b600052601160045260246000fdfea264697066735822122096201fdd30b2005fceab3790ce181e51b0eb86cbbf6c9c1098aa808ea1f9910464736f6c63430008000033",
  "linkReferences": {},
  "deployedLinkReferences": {}
}