{
  "_format": "hh-sol-artifact-1",
  "contractName": "GRBStaker",
  "sourceName": "contracts/GRBStaker.sol",
  "abi": [
    {
      "inputs": [
        {
          "internalType": "address",
          "name": "_grb",
          "type": "address"
        }
      ],
      "stateMutability": "nonpayable",
      "type": "constructor"
    },
    {
      "anonymous": false,
      "inputs": [
        {
          "indexed": true,
          "internalType": "address",
          "name": "user",
          "type": "address"
        },
        {
          "indexed": false,
          "internalType": "uint256",
          "name": "amount",
          "type": "uint256"
        },
        {
          "indexed": false,
          "internalType": "uint256",
          "name": "stakingLevel",
          "type": "uint256"
        },
        {
          "indexed": false,
          "internalType": "uint256",
          "name": "releaseDate",
          "type": "uint256"
        }
      ],
      "name": "Deposit",
      "type": "event"
    },
    {
      "anonymous": false,
      "inputs": [
        {
          "indexed": true,
          "internalType": "address",
          "name": "previousOwner",
          "type": "address"
        },
        {
          "indexed": true,
          "internalType": "address",
          "name": "newOwner",
          "type": "address"
        }
      ],
      "name": "OwnershipTransferred",
      "type": "event"
    },
    {
      "anonymous": false,
      "inputs": [
        {
          "indexed": false,
          "internalType": "uint256",
          "name": "levelNo",
          "type": "uint256"
        },
        {
          "indexed": false,
          "internalType": "uint256",
          "name": "requiredAmount",
          "type": "uint256"
        }
      ],
      "name": "SetLevel",
      "type": "event"
    },
    {
      "anonymous": false,
      "inputs": [
        {
          "indexed": true,
          "internalType": "address",
          "name": "user",
          "type": "address"
        },
        {
          "indexed": false,
          "internalType": "uint256",
          "name": "amount",
          "type": "uint256"
        },
        {
          "indexed": false,
          "internalType": "uint256",
          "name": "stakingLevel",
          "type": "uint256"
        }
      ],
      "name": "Withdraw",
      "type": "event"
    },
    {
      "inputs": [
        {
          "internalType": "uint256",
          "name": "_amount",
          "type": "uint256"
        },
        {
          "internalType": "uint256",
          "name": "_stakingLevel",
          "type": "uint256"
        }
      ],
      "name": "deposit",
      "outputs": [
        {
          "internalType": "bool",
          "name": "",
          "type": "bool"
        }
      ],
      "stateMutability": "nonpayable",
      "type": "function"
    },
    {
      "inputs": [
        {
          "internalType": "uint256",
          "name": "_levelNo",
          "type": "uint256"
        }
      ],
      "name": "getStakingLevel",
      "outputs": [
        {
          "internalType": "uint256",
          "name": "requiredAmount",
          "type": "uint256"
        }
      ],
      "stateMutability": "view",
      "type": "function"
    },
    {
      "inputs": [
        {
          "internalType": "address",
          "name": "_user",
          "type": "address"
        }
      ],
      "name": "getUserBalance",
      "outputs": [
        {
          "internalType": "uint256",
          "name": "",
          "type": "uint256"
        }
      ],
      "stateMutability": "view",
      "type": "function"
    },
    {
      "inputs": [
        {
          "internalType": "address",
          "name": "_user",
          "type": "address"
        }
      ],
      "name": "getUserStakingLevel",
      "outputs": [
        {
          "internalType": "uint256",
          "name": "",
          "type": "uint256"
        }
      ],
      "stateMutability": "view",
      "type": "function"
    },
    {
      "inputs": [],
      "name": "maxStakingLevel",
      "outputs": [
        {
          "internalType": "uint256",
          "name": "",
          "type": "uint256"
        }
      ],
      "stateMutability": "view",
      "type": "function"
    },
    {
      "inputs": [],
      "name": "owner",
      "outputs": [
        {
          "internalType": "address",
          "name": "",
          "type": "address"
        }
      ],
      "stateMutability": "view",
      "type": "function"
    },
    {
      "inputs": [],
      "name": "renounceOwnership",
      "outputs": [],
      "stateMutability": "nonpayable",
      "type": "function"
    },
    {
      "inputs": [
        {
          "internalType": "uint256",
          "name": "_duration",
          "type": "uint256"
        }
      ],
      "name": "setStakingDuration",
      "outputs": [],
      "stateMutability": "nonpayable",
      "type": "function"
    },
    {
      "inputs": [
        {
          "internalType": "uint256",
          "name": "_levelNo",
          "type": "uint256"
        },
        {
          "internalType": "uint256",
          "name": "_requiredAmount",
          "type": "uint256"
        }
      ],
      "name": "setStakingLevel",
      "outputs": [],
      "stateMutability": "nonpayable",
      "type": "function"
    },
    {
      "inputs": [],
      "name": "stakingDuration",
      "outputs": [
        {
          "internalType": "uint256",
          "name": "",
          "type": "uint256"
        }
      ],
      "stateMutability": "view",
      "type": "function"
    },
    {
      "inputs": [
        {
          "internalType": "uint256",
          "name": "",
          "type": "uint256"
        }
      ],
      "name": "stakingLevels",
      "outputs": [
        {
          "internalType": "uint256",
          "name": "duration",
          "type": "uint256"
        },
        {
          "internalType": "uint256",
          "name": "requiredAmount",
          "type": "uint256"
        }
      ],
      "stateMutability": "view",
      "type": "function"
    },
    {
      "inputs": [],
      "name": "stakingToken",
      "outputs": [
        {
          "internalType": "contract IERC20",
          "name": "",
          "type": "address"
        }
      ],
      "stateMutability": "view",
      "type": "function"
    },
    {
      "inputs": [
        {
          "internalType": "address",
          "name": "newOwner",
          "type": "address"
        }
      ],
      "name": "transferOwnership",
      "outputs": [],
      "stateMutability": "nonpayable",
      "type": "function"
    },
    {
      "inputs": [
        {
          "internalType": "address",
          "name": "",
          "type": "address"
        }
      ],
      "name": "userStakeInfo",
      "outputs": [
        {
          "internalType": "uint256",
          "name": "amount",
          "type": "uint256"
        },
        {
          "internalType": "uint256",
          "name": "releaseDate",
          "type": "uint256"
        },
        {
          "internalType": "uint256",
          "name": "stakingLevel",
          "type": "uint256"
        },
        {
          "internalType": "uint256",
          "name": "requiredAmount",
          "type": "uint256"
        }
      ],
      "stateMutability": "view",
      "type": "function"
    },
    {
      "inputs": [
        {
          "internalType": "uint256",
          "name": "_amount",
          "type": "uint256"
        }
      ],
      "name": "withdraw",
      "outputs": [
        {
          "internalType": "bool",
          "name": "",
          "type": "bool"
        }
      ],
      "stateMutability": "nonpayable",
      "type": "function"
    }
  ],
  "bytecode": "0x60806040526276a70060065534801561001757600080fd5b506040516111de3803806111de83398101604081905261003691610155565b610046610041610101565b610105565b60018055600280546001600160a01b0319166001600160a01b03929092169190911790556004602052678ac7230489e800007fabd6e7cb50984ff9c2f3e18a2660c3353dadf4e3291deeb275dae2cd1e44fe065568056bc75e2d631000007f91da3fd0782e51c6b3986e9e672fd566868e71f3dbc2d6c2cd6fbb3e361af2a85560036000819052683635c9adc5dea000007f2e174c10e159ea99b867ce3205125c24a42d128804e4070ed6fcc8cc98166aa155600555610183565b3390565b600080546001600160a01b038381166001600160a01b0319831681178455604051919092169283917f8be0079c531659141344cd1fd0a4f28419497f9722a3daafe3b4186f6b6457e09190a35050565b600060208284031215610166578081fd5b81516001600160a01b038116811461017c578182fd5b9392505050565b61104c806101926000396000f3fe608060405234801561001057600080fd5b50600436106100f55760003560e01c80636a8ca691116100975780638a90be69116100665780638a90be69146101ef5780638da5cb5b14610202578063e2bbb1581461020a578063f2fde38b1461021d576100f5565b80636a8ca691146101b7578063715018a6146101ca57806372f702f3146101d25780638005a7de146101e7576100f5565b80632e1a7d4d116100d35780632e1a7d4d1461015957806347734892146101795780634ac006471461018c5780634ead432714610194576100f5565b806309a60207146100fa5780631e076b50146101235780631facfb6b14610138575b600080fd5b61010d610108366004610aba565b610230565b60405161011a9190610f5d565b60405180910390f35b610136610131366004610b19565b61024e565b005b61014b610146366004610b01565b610317565b60405161011a929190610f66565b61016c610167366004610b01565b610330565b60405161011a9190610ba7565b61010d610187366004610aba565b6104c7565b61010d6104e2565b6101a76101a2366004610aba565b6104e8565b60405161011a9493929190610f8a565b6101366101c5366004610b01565b610511565b610136610555565b6101da6105a0565b60405161011a9190610b56565b61010d6105af565b61010d6101fd366004610b01565b6105b5565b6101da61060f565b61016c610218366004610b19565b61061e565b61013661022b366004610aba565b6107cc565b6001600160a01b031660009081526003602052604090206002015490565b61025661083d565b6001600160a01b031661026761060f565b6001600160a01b0316146102965760405162461bcd60e51b815260040161028d90610e04565b60405180910390fd5b600082116102b65760405162461bcd60e51b815260040161028d90610be5565b60008281526004602052604090206001018190556005548211156102da5760058290555b7f3032a0e99657d809531888192f097e8d52b06233149e539c44e299d6539a6795828260405161030b929190610f66565b60405180910390a15050565b6004602052600090815260409020805460019091015482565b6000600260015414156103555760405162461bcd60e51b815260040161028d90610f01565b6002600155336000908152600360205260409020548211156103895760405162461bcd60e51b815260040161028d90610c1c565b33600090815260036020526040902060010154421015806103dd57503360008181526003602081815260408084206002810154855260048352908420600101549490935252546103da908490610fbd565b10155b6103f95760405162461bcd60e51b815260040161028d90610da7565b33600090815260036020526040902054610414908390610fbd565b33600081815260036020818152604080842086815560020154845260048252832060010154939092529052111561045957336000908152600360205260408120600201555b600254610470906001600160a01b03163384610841565b33600081815260036020526040908190206002015490517ff279e6a1f5e320cca91135676d9cb6e44ca8a08c0b88342bcdb1144f6511b568916104b591869190610f66565b60405180910390a25050600180805590565b6001600160a01b031660009081526003602052604090205490565b60055481565b600360208190526000918252604090912080546001820154600283015492909301549092919084565b61051961083d565b6001600160a01b031661052a61060f565b6001600160a01b0316146105505760405162461bcd60e51b815260040161028d90610e04565b600655565b61055d61083d565b6001600160a01b031661056e61060f565b6001600160a01b0316146105945760405162461bcd60e51b815260040161028d90610e04565b61059e600061089c565b565b6002546001600160a01b031681565b60065481565b60006005548211156105d95760405162461bcd60e51b815260040161028d90610d64565b600082116105f95760405162461bcd60e51b815260040161028d90610c5f565b5060009081526004602052604090206001015490565b6000546001600160a01b031690565b600080821161063f5760405162461bcd60e51b815260040161028d90610c5f565b6000831161065f5760405162461bcd60e51b815260040161028d90610f38565b8160055410156106815760405162461bcd60e51b815260040161028d90610d64565b3360009081526003602052604090206002015482116106b25760405162461bcd60e51b815260040161028d90610e39565b6000828152600460209081526040808320600101543384526003909252909120546106de908590610fa5565b146106fb5760405162461bcd60e51b815260040161028d90610cdc565b33600090815260036020526040902054610716908490610fa5565b3360008181526003602081815260408084209586556002860188905587845260048252832060010154939092529081905291909101556006546107599042610fa5565b33600081815260036020526040908190206001018390555190917f36af321ec8d3c75236829c5317affd40ddb308863a1236d2d277a4025cccee1e916107a3918791879190610f74565b60405180910390a26002546107c3906001600160a01b03163330866108ec565b50600192915050565b6107d461083d565b6001600160a01b03166107e561060f565b6001600160a01b03161461080b5760405162461bcd60e51b815260040161028d90610e04565b6001600160a01b0381166108315760405162461bcd60e51b815260040161028d90610c96565b61083a8161089c565b50565b3390565b6108978363a9059cbb60e01b8484604051602401610860929190610b8e565b60408051601f198184030181529190526020810180516001600160e01b03166001600160e01b031990931692909217909152610913565b505050565b600080546001600160a01b038381166001600160a01b0319831681178455604051919092169283917f8be0079c531659141344cd1fd0a4f28419497f9722a3daafe3b4186f6b6457e09190a35050565b61090d846323b872dd60e01b85858560405160240161086093929190610b6a565b50505050565b6000610968826040518060400160405280602081526020017f5361666545524332303a206c6f772d6c6576656c2063616c6c206661696c6564815250856001600160a01b03166109a29092919063ffffffff16565b80519091501561089757808060200190518101906109869190610ae1565b6108975760405162461bcd60e51b815260040161028d90610eb7565b60606109b184846000856109bb565b90505b9392505050565b6060824710156109dd5760405162461bcd60e51b815260040161028d90610d1e565b6109e685610a7b565b610a025760405162461bcd60e51b815260040161028d90610e80565b600080866001600160a01b03168587604051610a1e9190610b3a565b60006040518083038185875af1925050503d8060008114610a5b576040519150601f19603f3d011682016040523d82523d6000602084013e610a60565b606091505b5091509150610a70828286610a81565b979650505050505050565b3b151590565b60608315610a905750816109b4565b825115610aa05782518084602001fd5b8160405162461bcd60e51b815260040161028d9190610bb2565b600060208284031215610acb578081fd5b81356001600160a01b03811681146109b4578182fd5b600060208284031215610af2578081fd5b815180151581146109b4578182fd5b600060208284031215610b12578081fd5b5035919050565b60008060408385031215610b2b578081fd5b50508035926020909101359150565b60008251610b4c818460208701610fd4565b9190910192915050565b6001600160a01b0391909116815260200190565b6001600160a01b039384168152919092166020820152604081019190915260600190565b6001600160a01b03929092168252602082015260400190565b901515815260200190565b6000602082528251806020840152610bd1816040850160208701610fd4565b601f01601f19169190910160400192915050565b60208082526017908201527f6c6576656c20302073686f756c6420626520656d707479000000000000000000604082015260600190565b60208082526023908201527f596f7520646f206e6f7420686176652074686520656e746572656420616d6f75604082015262373a1760e91b606082015260800190565b60208082526018908201527f6c6576656c2030206973206e6f7420617661696c61626c650000000000000000604082015260600190565b60208082526026908201527f4f776e61626c653a206e6577206f776e657220697320746865207a65726f206160408201526564647265737360d01b606082015260800190565b60208082526022908201527f596f75206e65656420746f207374616b6520726571756972656420616d6f756e6040820152613a1760f11b606082015260800190565b60208082526026908201527f416464726573733a20696e73756666696369656e742062616c616e636520666f6040820152651c8818d85b1b60d21b606082015260800190565b60208082526023908201527f476976656e207374616b696e67206c6576656c20646f6573206e6f742065786960408201526239ba1760e91b606082015260800190565b60208082526039908201527f596f752063616e277420776974686472617720756e74696c20796f757220737460408201527f616b696e6720706572696f6420697320636f6d706c6574652e00000000000000606082015260800190565b6020808252818101527f4f776e61626c653a2063616c6c6572206973206e6f7420746865206f776e6572604082015260600190565b60208082526027908201527f5573657220616c726561647920686173206120686967686572206f722073616d60408201526665207374616b6560c81b606082015260800190565b6020808252601d908201527f416464726573733a2063616c6c20746f206e6f6e2d636f6e7472616374000000604082015260600190565b6020808252602a908201527f5361666545524332303a204552433230206f7065726174696f6e20646964206e6040820152691bdd081cdd58d8d9595960b21b606082015260800190565b6020808252601f908201527f5265656e7472616e637947756172643a207265656e7472616e742063616c6c00604082015260600190565b6020808252600b908201526a0616d6f756e7420697320360ac1b604082015260600190565b90815260200190565b918252602082015260400190565b9283526020830191909152604082015260600190565b93845260208401929092526040830152606082015260800190565b60008219821115610fb857610fb8611000565b500190565b600082821015610fcf57610fcf611000565b500390565b60005b83811015610fef578181015183820152602001610fd7565b8381111561090d5750506000910152565b634e487b7160e01b600052601160045260246000fdfea264697066735822122087b3c70588fc3a0c1e3c9d57cad9889b8070a654276d11232bd291369cdead3e64736f6c63430008000033",
  "linkReferences": {},
  "deployedLinkReferences": {}
}